:020000040800F2
:10000000180400209D010008AB0A00082D0A000812
:10001000A90A0008E5010008E10C00080000000042
:10002000000000000000000000000000C90B0008F4
:100030006508000800000000710B0008B501000809
:10004000B7010008B7010008B7010008B7010008B0
:10005000B7010008B7010008B7010008B7010008A0
:10006000B7010008B7010008B7010008B701000890
:10007000B7010008B7010008B7010008B701000880
:10008000B7010008B7010008B7010008B701000870
:10009000A9020008B7010008B7010008B70100086D
:1000A000B7010008B7010008B7010008B701000850
:1000B000B7010008B7010008B7010008B701000840
:1000C000B7010008B7010008B7010008B701000830
:1000D000B7010008B7010008B7010008B701000820
:1000E000B7010008B7010008B7010008B701000810
:1000F000B7010008B7010008B7010008B701000800
:10010000B7010008B7010008B7010008B7010008EF
:10011000B7010008B7010008B7010008B7010008DF
:10012000B7010008B7010008B7010008B7010008CF
:10013000B7010008B7010008B7010008B7010008BF
:10014000CD030008B7010008B7010008B701000897
:10015000B7010008B7010008B7010008B70100089F
:10016000B7010008B7010008B7010008B70100088F
:10017000B7010008B7010008B7010008B70100087F
:10018000B7010008B7010008DFF80CD000F018F83C
:1001900000480047890D00081804002006488047E1
:1001A00006480047FEE7FEE7FEE7FEE7FEE7FEE75C
:1001B000FEE7FEE7FEE7FEE7850C00088901000880
:1001C000064C074D06E0E06840F0010394E80700A4
:1001D00098471034AC42F6D3FFF7DAFF0C0F000853
:1001E0002C0F0008FEE70000F0B589B001210820BF
:1001F00000F0C0FC0125079502268DF820608DF8DF
:10020000216000248DF822408DF82350244F07A947
:10021000384600F031FB079607A9384600F02CFB62
:1002200009220021384600F065FB092201213846E9
:1002300000F060FB0121480600F0AAFC194E304690
:1002400000F052F904A800F0A2FA8DF816408DF8DB
:10025000174006948DF8124004A9FA2000F0E4F843
:1002600004A9304600F0D0F98DF80A408DF80B4013
:100270008DF80C50ADF80040ADF80240ADF80440E8
:10028000ADF80640ADF808408DF80D50684600F016
:1002900047F901220221304600F0ACF909B0F0BD67
:1002A000000C02400064004010B586B000200190B0
:1002B00002908DF80C008DF80E008DF817008DF867
:1002C0000F000D4C01AA0021204600F01FFA0199F1
:1002D000222907D19DF80F10BB2903D161140748CB
:1002E00000F01FFB064A012111700221204600F098
:1002F000B7F806B010BD00000064004000100240D6
:100300000000002070B58AB00121022000F032FC0C
:100310002020089002208DF824008DF8250000246C
:100320008DF8264001258DF82750264E08A9304625
:1003300000F0A2FA4021089108A9304600F09CFA8A
:1003400009220521304600F0D5FA0922062130465F
:1003500000F0D0FA01214FF0C06000F019FC1A4EF5
:10036000304600F0C1F805A800F011FA8DF81A40E7
:100370008DF81B4007948DF8164005A9FA2000F06F
:1003800053F805A9304600F03FF90E208DF80E0015
:100390008DF80F408DF81050ADF80440ADF80640D0
:1003A000ADF80840ADF80A40ADF80C408DF811509A
:1003B00001A800F0B5F801220221304600F01AF938
:1003C0000AB070BD000402400068004010B586B05D
:1003D0000020019002908DF80C008DF80E008DF831
:1003E00017008DF80F000D4C01AA0021204600F0E7
:1003F0008DF90199112907D19DF80F10AA2903D170
:100400002114074800F08DFA064A0121517002219B
:10041000204600F025F806B010BD0000006800403E
:10042000001002400000002010B500220B4B02EB30
:10043000820453F8244084420CD102EB820003EB87
:1004400080000279CA70027A0A71027B4A71008ABE
:10045000088010BD521C122AE9D310BDA40D00085B
:1004600030B5082310240422B1F5007F33D011DC0D
:1004700020292AD007DC012922D0042923D00829E9
:1004800000D1C46030BD402921D0B1F5807FF9D1C1
:10049000426030BD0025B1F5004F20D008DCB1F539
:1004A000806F1AD0B1F5006FF3D18561426030BD25
:1004B000B1F5803F0DD0B1F5003FF8D1446030BDBB
:1004C0000849816030BDC36030BD036130BD046147
:1004D00030BD436030BD426030BD426030BD85619B
:1004E000426030BD0101010010B50C4988420AD1BB
:1004F00001214C06204600F059FB2046BDE8104083
:10050000002100F053BB01218C06204600F04EFB79
:100510002046BDE81040002100F048BB00640040C8
:10052000F0B5827A01219140304C226842F00102FC
:1005300022602E4D1C352A688A432A602B4A067B8E
:100540000C322B4B002E14D116688E431660468851
:10055000C78846EA0746877A03EBC707C7F84066AD
:100560000688878846EA0746877A03EBC707C7F8F5
:100570004466067B012E14D116680E43166042882D
:10058000068842EA0642867A03EBC606C6F840268B
:10059000C288868842EA0642867A03EBC603C3F81D
:1005A0004426124AC37A121D3BB113680B431360F1
:1005B0000E4A0389143223B106E013688B4313609B
:1005C000F6E713688B4313600389012B02D113688C
:1005D0000B431360407B012802D128680843286040
:1005E000206820F001002060F0BD0000006600409F
:1005F00000600040002A03D042690A43426170470C
:1006000042698A434261704710B50022036823F0B3
:1006100002030360036843F0010303604FF6FF73B6
:1006200000E0521C4468E40701D19A42F9D14268C3
:10063000D2073ED08A79012A3DD0026822F080029A
:100640000260CA79012A3BD0026822F040020260AF
:100650000A7A012A39D0026822F0200202604A7A1E
:10066000012A37D0026822F0100202608A7A012A39
:1006700035D0026822F008020260CA7A012A33D01B
:10068000026822F0040202608A78CC78920742EA7B
:1006900004620C7942EA04424C79098842EA045225
:1006A000491E0A43C261016821F001010160002175
:1006B00020E0002010BD026842F080020260C0E726
:1006C000026842F040020260C2E7026842F0200283
:1006D0000260C4E7026842F010020260C6E70268E6
:1006E00042F008020260C8E7026842F004020260B9
:1006F000CAE7491C4268D20701D09942F9D1406843
:10070000C00701D0002010BD012010BD10B500EBC6
:100710000113D3F8B04104F004041472002C2CD05F
:10072000D3F8B041E408546003F5D8731C6804F0B2
:10073000020454725C6804F00F0494725C68240A2A
:10074000D4749C68D4729C68240A14739C68240C2A
:1007500054739C68240E9473DC68D473DC68240A98
:100760001474DC68240C5474DB681B0E937449B158
:10077000016941F02001016110BDD3F8B041640D61
:100780001460D1E7C16841F02001C16010BD0021B3
:100790008171C171017241728172C1728170C170C7
:1007A000032101710221417101210180704730B59F
:1007B0000246002093685B010AD49068000101D5CD
:1007C000012005E09068C00001D5022000E004206F
:1007D00004283BD002EB0012D2F8803103F0010371
:1007E000C2F880310B7A93B3D2F880414D681C4334
:1007F0004B7A43EAC5031C43C2F880418B7A03F06D
:100800000F038B7202F5C072536823F00F0353601D
:1008100053688C7A23435360CB7A8C7B0D7B43EAFD
:1008200004634C7B240444EA052423439360CB7B7C
:100830008C7C43EA04634C7C097C240444EA012157
:100840000B43D360116841F00101116030BDFFE737
:10085000D2F880314C7A23430C8843EA4453C2F8DF
:100860008031CBE7704701B502E00098401E009050
:1008700000980028F9D108BD2DE9F0410022012798
:100880004FF0030C07FA02F50B682B40AB422CD15A
:10089000066853000CFA03F4A64306600E79D0F8FC
:1008A00000809E4046EA080606600E79012E01D0BF
:1008B000022E12D18668A64386604E79D0F8088051
:1008C0009E4046EA080686604668AE434660456834
:1008D0008E799640B6B235434560C568A543C5607C
:1008E000CC799C40C3681C43C460521C102AC9D3F5
:1008F000BDE8F08110B54B07DB0E9A40C90800EB4C
:100900008100016A0F249C40A1430162016A1143E6
:10091000016210BD0246002012690A4200D0012087
:100920007047418370470183704700002DE9F0470D
:10093000DFF8F0804FF4806949464046FFF7EAFF50
:100940004FF40054384F6500A600E8B93846FFF769
:100950008AFF49464046FFF7DDFFA8B949464046B1
:10096000FFF7D8FF0028F9D0AA21112000F0C8F91C
:1009700021464046FFF7D7FF29464046FFF7D3FF01
:1009800031464046FFF7CFFF4FF4006949464046E5
:10099000FFF7C0FFE8B93846FFF765FF4946404614
:1009A000FFF7B8FFA8B949464046FFF7B3FF002854
:1009B000F9D0BB21222000F0C5F921464046FFF7BF
:1009C000B2FF29464046FFF7AEFF31464046FFF7EB
:1009D000AAFF4FF4805949464046FFF79BFF002885
:1009E0001DD13846FFF73FFF4F4639464046FFF7D7
:1009F00091FF002813D139464046FFF78BFF0028AE
:100A0000F9D021464046FFF78EFF29464046FFF7C2
:100A10008AFF31464046BDE8F047FFF784BFBDE896
:100A2000F08700000010024040420F00FEE7000087
:100A30001CB50121102000F09DF84FF4E05000900B
:100A400003208DF8050000208DF804006946024857
:100A5000FFF712FF1CBD0000001002401CB5012171
:100A6000102000F087F84FF46040009001208DF8CE
:100A7000040003208DF805000A4C69462046FFF764
:100A8000FBFE4FF400512046FFF74DFF4FF480412D
:100A90002046FFF748FF4FF400412046FFF743FF91
:100AA0001CBD000000100240FEE77047F8B514209E
:100AB0008DF800004FF44076304600F04FF80024E7
:100AC0008DF801408DF8024001258DF803506846ED
:100AD00000F010F840218DF80010304600F03EF88C
:100AE0008DF801408DF802508DF80350684600F0F3
:100AF00001F8F8BD30B50F23C27801250178002A2E
:100B00001FD0154A126802F4E062C2F5E062C2F337
:100B10000722C2F10404D3404278A24084781C40EA
:100B20001443220101F1E02181F80024007800F053
:100B30001F018D404009800000F1E020C0F8005105
:100B400030BD01F01F0085404809800000F1E02021
:100B5000C0F8805130BD00000CED00E002490843B0
:100B600002490860704700000000FA050CED00E043
:100B700070470000054A002903D011680143116045
:100B8000704711688143116070470000303802409F
:100B9000054A002903D011680143116070471168AC
:100BA000814311607047000040380240054A002927
:100BB00003D01168014311607047116881431160CF
:100BC0007047000020380240704700000CB500223A
:100BD000019200922749086840F4803008604FF481
:100BE000A043086800F4003000900198401C019078
:100BF000009810B901989842F3D10868800302D593
:100C00000120009000E000920098012831D119489D
:100C10004030026842F0805202601748026842F495
:100C2000404202601348083002680260026842F4E1
:100C300000420260026842F4A0520260021F0F4BA1
:100C400013600A6842F080720A600A689201FCD55B
:100C50000B4A40F205711160016821F00301016047
:100C6000016841F0020101600168C1F381010229BC
:100C7000FAD10CBD00380240007000401954400702
:100C8000003C024010B51248016841F47001016057
:100C90001048016841F0010101600E4A002108324C
:100CA000116002680C4B1A400260031D0B4A1A6067
:100CB000026822F48022026006480C300160FFF7CF
:100CC00085FF03494FF000608039086010BD0000C7
:100CD00088ED00E000380240FFFFF6FE10300024EF
:100CE000FEE702E008C8121F08C1002AFAD17047C7
:100CF0007047002001E001C1121F002AFBD170479C
:100D000010B586B00190002002908DF80C008DF88F
:100D10000D0008208DF80E00084A1170002001A96E
:100D20000C18135CE372401CC0B20828F8D301A968
:100D30000348FFF73CFD06B010BD00000200002094
:100D40000064004010B586B00190002002908DF83C
:100D50000C008DF80D0008208DF80E00084A117067
:100D6000002001A90C18135CE372401CC0B20828D3
:100D7000F8D301A90348FFF71AFD06B010BD000023
:100D80000A00002000680040FFF790FEFFF72CFAF1
:100D9000FFF7B8FAFFF74CFEFFF760FEFFF7C6FD5E
:100DA000FCE7000005000000000000000C0000004F
:100DB00001000000C20100000A0000000000000065
:100DC0000500000001000000900100000F0000007D
:100DD000000000000C000000010000009600000070
:100DE00014000000000000000500000001000000E9
:100DF000C80000001900000000000000050000000D
:100E00000700000070000000280000000000000043
:100E10000500000001000000640000003200000036
:100E2000000000000500000007000000380000007E
:100E30003E000000000000000C0000000100000067
:100E40002400000050000000000000000500000029
:100E500001000000320000006400000000000000FB
:100E600005000000070000001C0000007D000000DD
:100E7000000000000C000000010000001200000053
:100E8000C80000000000000005000000070000008E
:100E90000E000000FA000000000000000E0000003C
:100EA00004000000080000009001000000000000A5
:100EB0000E0000000400000005000000F401000026
:100EC000000000000E00000004000000040000000C
:100ED0009A02000000000000040000000100000071
:100EE00008000000200300000000000007000000D0
:100EF000020000000E000000E803000000000000F7
:100F00000E00000004000000020000002C0F00088A
:100F10000000002014000000E20C0008400F000850
:100F20001400002004040000F20C0008000000007F
:100F300000000000000000000000000000000000B1
:040000050800018965
:00000001FF
